{
  "contractName": "Election",
  "abi": [
    {
      "inputs": [],
      "stateMutability": "nonpayable",
      "type": "constructor"
    },
    {
      "inputs": [],
      "name": "admin",
      "outputs": [
        {
          "internalType": "address",
          "name": "",
          "type": "address"
        }
      ],
      "stateMutability": "view",
      "type": "function",
      "constant": true
    },
    {
      "inputs": [
        {
          "internalType": "uint256",
          "name": "",
          "type": "uint256"
        }
      ],
      "name": "candidateDetails",
      "outputs": [
        {
          "internalType": "uint256",
          "name": "candidateId",
          "type": "uint256"
        },
        {
          "internalType": "string",
          "name": "image",
          "type": "string"
        },
        {
          "internalType": "string",
          "name": "header",
          "type": "string"
        },
        {
          "internalType": "string",
          "name": "slogan",
          "type": "string"
        },
        {
          "internalType": "uint256",
          "name": "voteCount",
          "type": "uint256"
        }
      ],
      "stateMutability": "view",
      "type": "function",
      "constant": true
    },
    {
      "inputs": [
        {
          "internalType": "address",
          "name": "",
          "type": "address"
        }
      ],
      "name": "voterDetails",
      "outputs": [
        {
          "internalType": "address",
          "name": "voterAddress",
          "type": "address"
        },
        {
          "internalType": "string",
          "name": "name",
          "type": "string"
        },
        {
          "internalType": "string",
          "name": "voterId",
          "type": "string"
        },
        {
          "internalType": "string",
          "name": "idimage",
          "type": "string"
        },
        {
          "internalType": "bool",
          "name": "isVerified",
          "type": "bool"
        },
        {
          "internalType": "bool",
          "name": "hasVoted",
          "type": "bool"
        },
        {
          "internalType": "bool",
          "name": "isRegistered",
          "type": "bool"
        }
      ],
      "stateMutability": "view",
      "type": "function",
      "constant": true
    },
    {
      "inputs": [
        {
          "internalType": "uint256",
          "name": "",
          "type": "uint256"
        }
      ],
      "name": "voters",
      "outputs": [
        {
          "internalType": "address",
          "name": "",
          "type": "address"
        }
      ],
      "stateMutability": "view",
      "type": "function",
      "constant": true
    },
    {
      "inputs": [],
      "name": "getAdmin",
      "outputs": [
        {
          "internalType": "address",
          "name": "",
          "type": "address"
        }
      ],
      "stateMutability": "view",
      "type": "function",
      "constant": true
    },
    {
      "inputs": [
        {
          "internalType": "string",
          "name": "_image",
          "type": "string"
        },
        {
          "internalType": "string",
          "name": "_header",
          "type": "string"
        },
        {
          "internalType": "string",
          "name": "_slogan",
          "type": "string"
        }
      ],
      "name": "addCandidate",
      "outputs": [],
      "stateMutability": "nonpayable",
      "type": "function"
    },
    {
      "inputs": [
        {
          "internalType": "string",
          "name": "_adminName",
          "type": "string"
        },
        {
          "internalType": "string",
          "name": "_adminEmail",
          "type": "string"
        },
        {
          "internalType": "string",
          "name": "_adminTitle",
          "type": "string"
        },
        {
          "internalType": "string",
          "name": "_electionTitle",
          "type": "string"
        },
        {
          "internalType": "string",
          "name": "_organizationTitle",
          "type": "string"
        },
        {
          "internalType": "string",
          "name": "_idProof",
          "type": "string"
        }
      ],
      "name": "setElectionDetails",
      "outputs": [],
      "stateMutability": "nonpayable",
      "type": "function"
    },
    {
      "inputs": [],
      "name": "getAdminName",
      "outputs": [
        {
          "internalType": "string",
          "name": "",
          "type": "string"
        }
      ],
      "stateMutability": "view",
      "type": "function",
      "constant": true
    },
    {
      "inputs": [],
      "name": "getAdminEmail",
      "outputs": [
        {
          "internalType": "string",
          "name": "",
          "type": "string"
        }
      ],
      "stateMutability": "view",
      "type": "function",
      "constant": true
    },
    {
      "inputs": [],
      "name": "getAdminTitle",
      "outputs": [
        {
          "internalType": "string",
          "name": "",
          "type": "string"
        }
      ],
      "stateMutability": "view",
      "type": "function",
      "constant": true
    },
    {
      "inputs": [],
      "name": "getElectionTitle",
      "outputs": [
        {
          "internalType": "string",
          "name": "",
          "type": "string"
        }
      ],
      "stateMutability": "view",
      "type": "function",
      "constant": true
    },
    {
      "inputs": [],
      "name": "getOrganizationTitle",
      "outputs": [
        {
          "internalType": "string",
          "name": "",
          "type": "string"
        }
      ],
      "stateMutability": "view",
      "type": "function",
      "constant": true
    },
    {
      "inputs": [],
      "name": "getidProof",
      "outputs": [
        {
          "internalType": "string",
          "name": "",
          "type": "string"
        }
      ],
      "stateMutability": "view",
      "type": "function",
      "constant": true
    },
    {
      "inputs": [],
      "name": "getTotalCandidate",
      "outputs": [
        {
          "internalType": "uint256",
          "name": "",
          "type": "uint256"
        }
      ],
      "stateMutability": "view",
      "type": "function",
      "constant": true
    },
    {
      "inputs": [],
      "name": "getTotalVoter",
      "outputs": [
        {
          "internalType": "uint256",
          "name": "",
          "type": "uint256"
        }
      ],
      "stateMutability": "view",
      "type": "function",
      "constant": true
    },
    {
      "inputs": [
        {
          "internalType": "string",
          "name": "_name",
          "type": "string"
        },
        {
          "internalType": "string",
          "name": "_voterId",
          "type": "string"
        },
        {
          "internalType": "string",
          "name": "_idimage",
          "type": "string"
        }
      ],
      "name": "registerAsVoter",
      "outputs": [],
      "stateMutability": "nonpayable",
      "type": "function"
    },
    {
      "inputs": [
        {
          "internalType": "bool",
          "name": "_verifedStatus",
          "type": "bool"
        },
        {
          "internalType": "address",
          "name": "voterAddress",
          "type": "address"
        }
      ],
      "name": "verifyVoter",
      "outputs": [],
      "stateMutability": "nonpayable",
      "type": "function"
    },
    {
      "inputs": [
        {
          "internalType": "uint256",
          "name": "candidateId",
          "type": "uint256"
        }
      ],
      "name": "vote",
      "outputs": [],
      "stateMutability": "nonpayable",
      "type": "function"
    },
    {
      "inputs": [],
      "name": "endElection",
      "outputs": [],
      "stateMutability": "nonpayable",
      "type": "function"
    },
    {
      "inputs": [],
      "name": "getStart",
      "outputs": [
        {
          "internalType": "bool",
          "name": "",
          "type": "bool"
        }
      ],
      "stateMutability": "view",
      "type": "function",
      "constant": true
    },
    {
      "inputs": [],
      "name": "getEnd",
      "outputs": [
        {
          "internalType": "bool",
          "name": "",
          "type": "bool"
        }
      ],
      "stateMutability": "view",
      "type": "function",
      "constant": true
    }
  ],
  "bytecode": "0x608060405234801561001057600080fd5b50336000806101000a81548173ffffffffffffffffffffffffffffffffffffffff021916908373ffffffffffffffffffffffffffffffffffffffff160217905550600060018190555060006002819055506000600360006101000a81548160ff0219169083151502179055506000600360016101000a81548160ff021916908315150217905550611c08806100a66000396000f3fe608060405234801561001057600080fd5b50600436106101375760003560e01c80636e9960c3116100b8578063ad71f8dc1161007c578063ad71f8dc14610310578063be081b6f1461032c578063c5292c671461034a578063da58c7d914610368578063e173730c14610398578063f851a440146103b657610137565b80636e9960c31461027c578063831318f11461029a5780639f05a36d146102b8578063a23b951d146102d6578063a83df8d4146102f457610137565b8063506b8e0a116100ff578063506b8e0a146101ce5780635938750d146101ea57806359f78468146102205780636247e5321461022a57806364d198a11461025e57610137565b80630121b93f1461013c5780630b93400e146101585780630e2354cf146101765780631689a44c1461019457806348343175146101b0575b600080fd5b61015660048036038101906101519190611486565b6103d4565b005b610160610560565b60405161016d91906114c2565b60405180910390f35b61017e61056a565b60405161018b9190611576565b60405180910390f35b6101ae60048036038101906101a991906116cd565b6105ff565b005b6101b8610819565b6040516101c59190611576565b60405180910390f35b6101e860048036038101906101e3919061180a565b6108ae565b005b61020460048036038101906101ff919061184a565b610964565b6040516102179796959493929190611895565b60405180910390f35b610228610b85565b005b610244600480360381019061023f9190611486565b610c15565b604051610255959493929190611919565b60405180910390f35b610266610de3565b60405161027391906114c2565b60405180910390f35b610284610ded565b6040516102919190611981565b60405180910390f35b6102a2610e16565b6040516102af9190611576565b60405180910390f35b6102c0610eab565b6040516102cd919061199c565b60405180910390f35b6102de610ec2565b6040516102eb9190611576565b60405180910390f35b61030e600480360381019061030991906119b7565b610f56565b005b61032a600480360381019061032591906116cd565b6110cc565b005b6103346111f5565b6040516103419190611576565b60405180910390f35b61035261128a565b60405161035f919061199c565b60405180910390f35b610382600480360381019061037d9190611486565b6112a1565b60405161038f9190611981565b60405180910390f35b6103a06112e0565b6040516103ad9190611576565b60405180910390f35b6103be611375565b6040516103cb9190611981565b60405180910390f35b60001515600c60003373ffffffffffffffffffffffffffffffffffffffff1673ffffffffffffffffffffffffffffffffffffffff16815260200190815260200160002060040160019054906101000a900460ff1615151461043457600080fd5b60011515600c60003373ffffffffffffffffffffffffffffffffffffffff1673ffffffffffffffffffffffffffffffffffffffff16815260200190815260200160002060040160009054906101000a900460ff1615151461049457600080fd5b60011515600360009054906101000a900460ff161515146104b457600080fd5b60001515600360019054906101000a900460ff161515146104d457600080fd5b60016004600083815260200190815260200160002060040160008282546104fb9190611b1b565b925050819055506001600c60003373ffffffffffffffffffffffffffffffffffffffff1673ffffffffffffffffffffffffffffffffffffffff16815260200190815260200160002060040160016101000a81548160ff02191690831515021790555050565b6000600254905090565b60606005600001805461057c90611ba0565b80601f01602080910402602001604051908101604052809291908181526020018280546105a890611ba0565b80156105f55780601f106105ca576101008083540402835291602001916105f5565b820191906000526020600020905b8154815290600101906020018083116105d857829003601f168201915b5050505050905090565b60006040518060e001604052803373ffffffffffffffffffffffffffffffffffffffff16815260200185815260200184815260200183815260200160001515815260200160001515815260200160011515815250905080600c60003373ffffffffffffffffffffffffffffffffffffffff1673ffffffffffffffffffffffffffffffffffffffff16815260200190815260200160002060008201518160000160006101000a81548173ffffffffffffffffffffffffffffffffffffffff021916908373ffffffffffffffffffffffffffffffffffffffff16021790555060208201518160010190805190602001906106f8929190611399565b506040820151816002019080519060200190610715929190611399565b506060820151816003019080519060200190610732929190611399565b5060808201518160040160006101000a81548160ff02191690831515021790555060a08201518160040160016101000a81548160ff02191690831515021790555060c08201518160040160026101000a81548160ff021916908315150217905550905050600b339080600181540180825580915050600190039060005260206000200160009091909190916101000a81548173ffffffffffffffffffffffffffffffffffffffff021916908373ffffffffffffffffffffffffffffffffffffffff16021790555060016002600082825461080c9190611b1b565b9250508190555050505050565b60606005600401805461082b90611ba0565b80601f016020809104026020016040519081016040528092919081815260200182805461085790611ba0565b80156108a45780601f10610879576101008083540402835291602001916108a4565b820191906000526020600020905b81548152906001019060200180831161088757829003601f168201915b5050505050905090565b60008054906101000a900473ffffffffffffffffffffffffffffffffffffffff1673ffffffffffffffffffffffffffffffffffffffff163373ffffffffffffffffffffffffffffffffffffffff161461090657600080fd5b81600c60008373ffffffffffffffffffffffffffffffffffffffff1673ffffffffffffffffffffffffffffffffffffffff16815260200190815260200160002060040160006101000a81548160ff0219169083151502179055505050565b600c6020528060005260406000206000915090508060000160009054906101000a900473ffffffffffffffffffffffffffffffffffffffff16908060010180546109ad90611ba0565b80601f01602080910402602001604051908101604052809291908181526020018280546109d990611ba0565b8015610a265780601f106109fb57610100808354040283529160200191610a26565b820191906000526020600020905b815481529060010190602001808311610a0957829003601f168201915b505050505090806002018054610a3b90611ba0565b80601f0160208091040260200160405190810160405280929190818152602001828054610a6790611ba0565b8015610ab45780601f10610a8957610100808354040283529160200191610ab4565b820191906000526020600020905b815481529060010190602001808311610a9757829003601f168201915b505050505090806003018054610ac990611ba0565b80601f0160208091040260200160405190810160405280929190818152602001828054610af590611ba0565b8015610b425780601f10610b1757610100808354040283529160200191610b42565b820191906000526020600020905b815481529060010190602001808311610b2557829003601f168201915b5050505050908060040160009054906101000a900460ff16908060040160019054906101000a900460ff16908060040160029054906101000a900460ff16905087565b60008054906101000a900473ffffffffffffffffffffffffffffffffffffffff1673ffffffffffffffffffffffffffffffffffffffff163373ffffffffffffffffffffffffffffffffffffffff1614610bdd57600080fd5b6001600360016101000a81548160ff0219169083151502179055506000600360006101000a81548160ff021916908315150217905550565b6004602052806000526040600020600091509050806000015490806001018054610c3e90611ba0565b80601f0160208091040260200160405190810160405280929190818152602001828054610c6a90611ba0565b8015610cb75780601f10610c8c57610100808354040283529160200191610cb7565b820191906000526020600020905b815481529060010190602001808311610c9a57829003601f168201915b505050505090806002018054610ccc90611ba0565b80601f0160208091040260200160405190810160405280929190818152602001828054610cf890611ba0565b8015610d455780601f10610d1a57610100808354040283529160200191610d45565b820191906000526020600020905b815481529060010190602001808311610d2857829003601f168201915b505050505090806003018054610d5a90611ba0565b80601f0160208091040260200160405190810160405280929190818152602001828054610d8690611ba0565b8015610dd35780601f10610da857610100808354040283529160200191610dd3565b820191906000526020600020905b815481529060010190602001808311610db657829003601f168201915b5050505050908060040154905085565b6000600154905090565b60008060009054906101000a900473ffffffffffffffffffffffffffffffffffffffff16905090565b606060056001018054610e2890611ba0565b80601f0160208091040260200160405190810160405280929190818152602001828054610e5490611ba0565b8015610ea15780601f10610e7657610100808354040283529160200191610ea1565b820191906000526020600020905b815481529060010190602001808311610e8457829003601f168201915b5050505050905090565b6000600360019054906101000a900460ff16905090565b6060600580018054610ed390611ba0565b80601f0160208091040260200160405190810160405280929190818152602001828054610eff90611ba0565b8015610f4c5780601f10610f2157610100808354040283529160200191610f4c565b820191906000526020600020905b815481529060010190602001808311610f2f57829003601f168201915b5050505050905090565b60008054906101000a900473ffffffffffffffffffffffffffffffffffffffff1673ffffffffffffffffffffffffffffffffffffffff163373ffffffffffffffffffffffffffffffffffffffff1614610fae57600080fd5b6040518060c001604052808781526020018681526020018581526020018481526020018381526020018281525060056000820151816000019080519060200190610ff9929190611399565b506020820151816001019080519060200190611016929190611399565b506040820151816002019080519060200190611033929190611399565b506060820151816003019080519060200190611050929190611399565b50608082015181600401908051906020019061106d929190611399565b5060a082015181600501908051906020019061108a929190611399565b509050506001600360006101000a81548160ff0219169083151502179055506000600360016101000a81548160ff021916908315150217905550505050505050565b60008054906101000a900473ffffffffffffffffffffffffffffffffffffffff1673ffffffffffffffffffffffffffffffffffffffff163373ffffffffffffffffffffffffffffffffffffffff161461112457600080fd5b60006040518060a001604052806001548152602001858152602001848152602001838152602001600081525090508060046000600154815260200190815260200160002060008201518160000155602082015181600101908051906020019061118e929190611399565b5060408201518160020190805190602001906111ab929190611399565b5060608201518160030190805190602001906111c8929190611399565b506080820151816004015590505060018060008282546111e89190611b1b565b9250508190555050505050565b60606005600201805461120790611ba0565b80601f016020809104026020016040519081016040528092919081815260200182805461123390611ba0565b80156112805780601f1061125557610100808354040283529160200191611280565b820191906000526020600020905b81548152906001019060200180831161126357829003601f168201915b5050505050905090565b6000600360009054906101000a900460ff16905090565b600b81815481106112b157600080fd5b906000526020600020016000915054906101000a900473ffffffffffffffffffffffffffffffffffffffff1681565b6060600560030180546112f290611ba0565b80601f016020809104026020016040519081016040528092919081815260200182805461131e90611ba0565b801561136b5780601f106113405761010080835404028352916020019161136b565b820191906000526020600020905b81548152906001019060200180831161134e57829003601f168201915b5050505050905090565b60008054906101000a900473ffffffffffffffffffffffffffffffffffffffff1681565b8280546113a590611ba0565b90600052602060002090601f0160209004810192826113c7576000855561140e565b82601f106113e057805160ff191683800117855561140e565b8280016001018555821561140e579182015b8281111561140d5782518255916020019190600101906113f2565b5b50905061141b919061141f565b5090565b5b80821115611438576000816000905550600101611420565b5090565b6000604051905090565b600080fd5b600080fd5b6000819050919050565b61146381611450565b811461146e57600080fd5b50565b6000813590506114808161145a565b92915050565b60006020828403121561149c5761149b611446565b5b60006114aa84828501611471565b91505092915050565b6114bc81611450565b82525050565b60006020820190506114d760008301846114b3565b92915050565b600081519050919050565b600082825260208201905092915050565b60005b838110156115175780820151818401526020810190506114fc565b83811115611526576000848401525b50505050565b6000601f19601f8301169050919050565b6000611548826114dd565b61155281856114e8565b93506115628185602086016114f9565b61156b8161152c565b840191505092915050565b60006020820190508181036000830152611590818461153d565b905092915050565b600080fd5b600080fd5b7f4e487b7100000000000000000000000000000000000000000000000000000000600052604160045260246000fd5b6115da8261152c565b810181811067ffffffffffffffff821117156115f9576115f86115a2565b5b80604052505050565b600061160c61143c565b905061161882826115d1565b919050565b600067ffffffffffffffff821115611638576116376115a2565b5b6116418261152c565b9050602081019050919050565b82818337600083830152505050565b600061167061166b8461161d565b611602565b90508281526020810184848401111561168c5761168b61159d565b5b61169784828561164e565b509392505050565b600082601f8301126116b4576116b3611598565b5b81356116c484826020860161165d565b91505092915050565b6000806000606084860312156116e6576116e5611446565b5b600084013567ffffffffffffffff8111156117045761170361144b565b5b6117108682870161169f565b935050602084013567ffffffffffffffff8111156117315761173061144b565b5b61173d8682870161169f565b925050604084013567ffffffffffffffff81111561175e5761175d61144b565b5b61176a8682870161169f565b9150509250925092565b60008115159050919050565b61178981611774565b811461179457600080fd5b50565b6000813590506117a681611780565b92915050565b600073ffffffffffffffffffffffffffffffffffffffff82169050919050565b60006117d7826117ac565b9050919050565b6117e7816117cc565b81146117f257600080fd5b50565b600081359050611804816117de565b92915050565b6000806040838503121561182157611820611446565b5b600061182f85828601611797565b9250506020611840858286016117f5565b9150509250929050565b6000602082840312156118605761185f611446565b5b600061186e848285016117f5565b91505092915050565b611880816117cc565b82525050565b61188f81611774565b82525050565b600060e0820190506118aa600083018a611877565b81810360208301526118bc818961153d565b905081810360408301526118d0818861153d565b905081810360608301526118e4818761153d565b90506118f36080830186611886565b61190060a0830185611886565b61190d60c0830184611886565b98975050505050505050565b600060a08201905061192e60008301886114b3565b8181036020830152611940818761153d565b90508181036040830152611954818661153d565b90508181036060830152611968818561153d565b905061197760808301846114b3565b9695505050505050565b60006020820190506119966000830184611877565b92915050565b60006020820190506119b16000830184611886565b92915050565b60008060008060008060c087890312156119d4576119d3611446565b5b600087013567ffffffffffffffff8111156119f2576119f161144b565b5b6119fe89828a0161169f565b965050602087013567ffffffffffffffff811115611a1f57611a1e61144b565b5b611a2b89828a0161169f565b955050604087013567ffffffffffffffff811115611a4c57611a4b61144b565b5b611a5889828a0161169f565b945050606087013567ffffffffffffffff811115611a7957611a7861144b565b5b611a8589828a0161169f565b935050608087013567ffffffffffffffff811115611aa657611aa561144b565b5b611ab289828a0161169f565b92505060a087013567ffffffffffffffff811115611ad357611ad261144b565b5b611adf89828a0161169f565b9150509295509295509295565b7f4e487b7100000000000000000000000000000000000000000000000000000000600052601160045260246000fd5b6000611b2682611450565b9150611b3183611450565b9250827fffffffffffffffffffffffffffffffffffffffffffffffffffffffffffffffff03821115611b6657611b65611aec565b5b828201905092915050565b7f4e487b7100000000000000000000000000000000000000000000000000000000600052602260045260246000fd5b60006002820490506001821680611bb857607f821691505b60208210811415611bcc57611bcb611b71565b5b5091905056fea26469706673582212208274be7d0f09fcc2359af8fd9436ded89033de6d77ff4bd046503315e326e60264736f6c634300080a0033",
  "immutableReferences": {},
  "source": "// SPDX-License-Identifier: MIT\r\npragma solidity >=0.4.21 <0.9.0;\r\n\r\ncontract Election {\r\n    address public admin;\r\n    uint256 candidateCount;\r\n    uint256 voterCount;\r\n    bool start;\r\n    bool end;\r\n\r\n    constructor() {\r\n        // Initilizing default values\r\n        admin = msg.sender;\r\n        candidateCount = 0;\r\n        voterCount = 0;\r\n        start = false;\r\n        end = false;\r\n    }\r\n\r\n    function getAdmin() public view returns (address) {\r\n        // Returns account address used to deploy contract (i.e. admin)\r\n        return admin;\r\n    }\r\n\r\n    modifier onlyAdmin() {\r\n        // Modifier for only admin access\r\n        require(msg.sender == admin);\r\n        _;\r\n    }\r\n    // Modeling a candidate\r\n    struct Candidate {\r\n        uint256 candidateId;\r\n        string image;\r\n        string header;\r\n        string slogan;\r\n        uint256 voteCount;\r\n    }\r\n    mapping(uint256 => Candidate) public candidateDetails;\r\n\r\n    // Adding new candidates\r\n    function addCandidate(string memory _image, string memory _header, string memory _slogan)\r\n        public\r\n        // Only admin can add\r\n        onlyAdmin\r\n    {\r\n        Candidate memory newCandidate =\r\n            Candidate({\r\n                candidateId: candidateCount,\r\n                image: _image,\r\n                header: _header,\r\n                slogan: _slogan,\r\n                voteCount: 0\r\n            });\r\n        candidateDetails[candidateCount] = newCandidate;\r\n        candidateCount += 1;\r\n    }\r\n\r\n    // Modeling a Election Details\r\n    struct ElectionDetails {\r\n        string adminName;\r\n        string adminEmail;\r\n        string adminTitle;\r\n        string electionTitle;\r\n        string organizationTitle;\r\n        string idProof;\r\n    }\r\n    ElectionDetails electionDetails;\r\n\r\n    function setElectionDetails(\r\n        string memory _adminName,\r\n        string memory _adminEmail,\r\n        string memory _adminTitle,\r\n        string memory _electionTitle,\r\n        string memory _organizationTitle,\r\n        string memory _idProof\r\n    )\r\n        public\r\n        // Only admin can add\r\n        onlyAdmin\r\n    {\r\n        electionDetails = ElectionDetails(\r\n            _adminName,\r\n            _adminEmail,\r\n            _adminTitle,\r\n            _electionTitle,\r\n            _organizationTitle,\r\n            _idProof\r\n        );\r\n        start = true;\r\n        end = false;\r\n    }\r\n\r\n    // Get Elections details\r\n    function getAdminName() public view returns (string memory) {\r\n        return electionDetails.adminName;\r\n    }\r\n\r\n    function getAdminEmail() public view returns (string memory) {\r\n        return electionDetails.adminEmail;\r\n    }\r\n\r\n    function getAdminTitle() public view returns (string memory) {\r\n        return electionDetails.adminTitle;\r\n    }\r\n\r\n    function getElectionTitle() public view returns (string memory) {\r\n        return electionDetails.electionTitle;\r\n    }\r\n\r\n    function getOrganizationTitle() public view returns (string memory) {\r\n        return electionDetails.organizationTitle;\r\n    }\r\n\r\n    function getidProof() public view returns (string memory) {\r\n        return electionDetails.idProof;\r\n    }\r\n\r\n    // Get candidates count\r\n    function getTotalCandidate() public view returns (uint256) {\r\n        // Returns total number of candidates\r\n        return candidateCount;\r\n    }\r\n\r\n    // Get voters count\r\n    function getTotalVoter() public view returns (uint256) {\r\n        // Returns total number of voters\r\n        return voterCount;\r\n    }\r\n\r\n    // Modeling a voter\r\n    struct Voter {\r\n        address voterAddress;\r\n        string name;\r\n        string voterId;\r\n        string idimage;\r\n        bool isVerified;\r\n        bool hasVoted;\r\n        bool isRegistered;\r\n    }\r\n    address[] public voters; // Array of address to store address of voters\r\n    mapping(address => Voter) public voterDetails;\r\n\r\n    // Request to be added as voter\r\n    function registerAsVoter(string memory _name, string memory _voterId, string memory _idimage) public {\r\n        Voter memory newVoter =\r\n            Voter({\r\n                voterAddress: msg.sender,\r\n                name: _name,\r\n                voterId: _voterId,\r\n                idimage: _idimage,\r\n                hasVoted: false,\r\n                isVerified: false,\r\n                isRegistered: true\r\n            });\r\n        voterDetails[msg.sender] = newVoter;\r\n        voters.push(msg.sender);\r\n        voterCount += 1;\r\n    }\r\n\r\n    // Verify voter\r\n    function verifyVoter(bool _verifedStatus, address voterAddress)\r\n        public\r\n        // Only admin can verify\r\n        onlyAdmin\r\n    {\r\n        voterDetails[voterAddress].isVerified = _verifedStatus;\r\n    }\r\n\r\n    // Vote\r\n    function vote(uint256 candidateId) public {\r\n        require(voterDetails[msg.sender].hasVoted == false);\r\n        require(voterDetails[msg.sender].isVerified == true);\r\n        require(start == true);\r\n        require(end == false);\r\n        candidateDetails[candidateId].voteCount += 1;\r\n        voterDetails[msg.sender].hasVoted = true;\r\n    }\r\n\r\n    // End election\r\n    function endElection() public onlyAdmin {\r\n        end = true;\r\n        start = false;\r\n    }\r\n\r\n    // Get election start and end values\r\n    function getStart() public view returns (bool) {\r\n        return start;\r\n    }\r\n\r\n    function getEnd() public view returns (bool) {\r\n        return end;\r\n    }\r\n}",
  "sourcePath": "C:\\Users\\payal\\Documents\\reactapp\\contracts\\Election.sol",
  "compiler": {
    "name": "solc",
    "version": "0.8.10+commit.fc410830.Emscripten.clang"
  },
  "schemaVersion": "3.4.4",
  "updatedAt": "2022-03-29T06:42:06.500Z",
  "networkType": "ethereum",
  "devdoc": {
    "kind": "dev",
    "methods": {},
    "version": 1
  },
  "userdoc": {
    "kind": "user",
    "methods": {},
    "version": 1
  }
}