{
  "contractName": "Election",
  "abi": [
    {
      "inputs": [],
      "stateMutability": "nonpayable",
      "type": "constructor"
    },
    {
      "inputs": [],
      "name": "admin",
      "outputs": [
        {
          "internalType": "address",
          "name": "",
          "type": "address"
        }
      ],
      "stateMutability": "view",
      "type": "function",
      "constant": true
    },
    {
      "inputs": [
        {
          "internalType": "uint256",
          "name": "",
          "type": "uint256"
        }
      ],
      "name": "candidateDetails",
      "outputs": [
        {
          "internalType": "uint256",
          "name": "candidateId",
          "type": "uint256"
        },
        {
          "internalType": "string",
          "name": "image",
          "type": "string"
        },
        {
          "internalType": "string",
          "name": "header",
          "type": "string"
        },
        {
          "internalType": "string",
          "name": "slogan",
          "type": "string"
        },
        {
          "internalType": "uint256",
          "name": "voteCount",
          "type": "uint256"
        }
      ],
      "stateMutability": "view",
      "type": "function",
      "constant": true
    },
    {
      "inputs": [
        {
          "internalType": "address",
          "name": "",
          "type": "address"
        }
      ],
      "name": "voterDetails",
      "outputs": [
        {
          "internalType": "address",
          "name": "voterAddress",
          "type": "address"
        },
        {
          "internalType": "string",
          "name": "name",
          "type": "string"
        },
        {
          "internalType": "string",
          "name": "phone",
          "type": "string"
        },
        {
          "internalType": "bool",
          "name": "isVerified",
          "type": "bool"
        },
        {
          "internalType": "bool",
          "name": "hasVoted",
          "type": "bool"
        },
        {
          "internalType": "bool",
          "name": "isRegistered",
          "type": "bool"
        }
      ],
      "stateMutability": "view",
      "type": "function",
      "constant": true
    },
    {
      "inputs": [
        {
          "internalType": "uint256",
          "name": "",
          "type": "uint256"
        }
      ],
      "name": "voters",
      "outputs": [
        {
          "internalType": "address",
          "name": "",
          "type": "address"
        }
      ],
      "stateMutability": "view",
      "type": "function",
      "constant": true
    },
    {
      "inputs": [],
      "name": "getAdmin",
      "outputs": [
        {
          "internalType": "address",
          "name": "",
          "type": "address"
        }
      ],
      "stateMutability": "view",
      "type": "function",
      "constant": true
    },
    {
      "inputs": [
        {
          "internalType": "string",
          "name": "_header",
          "type": "string"
        },
        {
          "internalType": "string",
          "name": "_slogan",
          "type": "string"
        },
        {
          "internalType": "string",
          "name": "_imageurl",
          "type": "string"
        }
      ],
      "name": "addCandidate",
      "outputs": [],
      "stateMutability": "nonpayable",
      "type": "function"
    },
    {
      "inputs": [
        {
          "internalType": "string",
          "name": "_adminName",
          "type": "string"
        },
        {
          "internalType": "string",
          "name": "_adminEmail",
          "type": "string"
        },
        {
          "internalType": "string",
          "name": "_adminTitle",
          "type": "string"
        },
        {
          "internalType": "string",
          "name": "_electionTitle",
          "type": "string"
        },
        {
          "internalType": "string",
          "name": "_organizationTitle",
          "type": "string"
        }
      ],
      "name": "setElectionDetails",
      "outputs": [],
      "stateMutability": "nonpayable",
      "type": "function"
    },
    {
      "inputs": [],
      "name": "getAdminName",
      "outputs": [
        {
          "internalType": "string",
          "name": "",
          "type": "string"
        }
      ],
      "stateMutability": "view",
      "type": "function",
      "constant": true
    },
    {
      "inputs": [],
      "name": "getAdminEmail",
      "outputs": [
        {
          "internalType": "string",
          "name": "",
          "type": "string"
        }
      ],
      "stateMutability": "view",
      "type": "function",
      "constant": true
    },
    {
      "inputs": [],
      "name": "getAdminTitle",
      "outputs": [
        {
          "internalType": "string",
          "name": "",
          "type": "string"
        }
      ],
      "stateMutability": "view",
      "type": "function",
      "constant": true
    },
    {
      "inputs": [],
      "name": "getElectionTitle",
      "outputs": [
        {
          "internalType": "string",
          "name": "",
          "type": "string"
        }
      ],
      "stateMutability": "view",
      "type": "function",
      "constant": true
    },
    {
      "inputs": [],
      "name": "getOrganizationTitle",
      "outputs": [
        {
          "internalType": "string",
          "name": "",
          "type": "string"
        }
      ],
      "stateMutability": "view",
      "type": "function",
      "constant": true
    },
    {
      "inputs": [],
      "name": "getTotalCandidate",
      "outputs": [
        {
          "internalType": "uint256",
          "name": "",
          "type": "uint256"
        }
      ],
      "stateMutability": "view",
      "type": "function",
      "constant": true
    },
    {
      "inputs": [],
      "name": "getTotalVoter",
      "outputs": [
        {
          "internalType": "uint256",
          "name": "",
          "type": "uint256"
        }
      ],
      "stateMutability": "view",
      "type": "function",
      "constant": true
    },
    {
      "inputs": [
        {
          "internalType": "string",
          "name": "_name",
          "type": "string"
        },
        {
          "internalType": "string",
          "name": "_phone",
          "type": "string"
        }
      ],
      "name": "registerAsVoter",
      "outputs": [],
      "stateMutability": "nonpayable",
      "type": "function"
    },
    {
      "inputs": [
        {
          "internalType": "bool",
          "name": "_verifedStatus",
          "type": "bool"
        },
        {
          "internalType": "address",
          "name": "voterAddress",
          "type": "address"
        }
      ],
      "name": "verifyVoter",
      "outputs": [],
      "stateMutability": "nonpayable",
      "type": "function"
    },
    {
      "inputs": [
        {
          "internalType": "uint256",
          "name": "candidateId",
          "type": "uint256"
        }
      ],
      "name": "vote",
      "outputs": [],
      "stateMutability": "nonpayable",
      "type": "function"
    },
    {
      "inputs": [],
      "name": "endElection",
      "outputs": [],
      "stateMutability": "nonpayable",
      "type": "function"
    },
    {
      "inputs": [],
      "name": "getStart",
      "outputs": [
        {
          "internalType": "bool",
          "name": "",
          "type": "bool"
        }
      ],
      "stateMutability": "view",
      "type": "function",
      "constant": true
    },
    {
      "inputs": [],
      "name": "getEnd",
      "outputs": [
        {
          "internalType": "bool",
          "name": "",
          "type": "bool"
        }
      ],
      "stateMutability": "view",
      "type": "function",
      "constant": true
    }
  ],
  "bytecode": "0x608060405234801561001057600080fd5b50336000806101000a81548173ffffffffffffffffffffffffffffffffffffffff021916908373ffffffffffffffffffffffffffffffffffffffff160217905550600060018190555060006002819055506000600360006101000a81548160ff0219169083151502179055506000600360016101000a81548160ff021916908315150217905550611aa9806100a66000396000f3fe608060405234801561001057600080fd5b506004361061012c5760003560e01c80636e9960c3116100ad578063c5292c6711610071578063c5292c6714610304578063da58c7d914610322578063e173730c14610352578063f851a44014610370578063fee0d19a1461038e5761012c565b80636e9960c314610270578063831318f11461028e5780639f05a36d146102ac578063ad71f8dc146102ca578063be081b6f146102e65761012c565b8063506b8e0a116100f4578063506b8e0a146101c35780635938750d146101df57806359f78468146102145780636247e5321461021e57806364d198a1146102525761012c565b80630121b93f146101315780630b93400e1461014d5780630e2354cf1461016b578063253e74e21461018957806348343175146101a5575b600080fd5b61014b600480360381019061014691906112f2565b6103aa565b005b610155610536565b604051610162919061132e565b60405180910390f35b610173610540565b60405161018091906113e2565b60405180910390f35b6101a3600480360381019061019e9190611539565b6105d5565b005b6101ad610727565b6040516101ba91906113e2565b60405180910390f35b6101dd60048036038101906101d891906116d6565b6107bc565b005b6101f960048036038101906101f49190611716565b610872565b60405161020b96959493929190611761565b60405180910390f35b61021c610a05565b005b610238600480360381019061023391906112f2565b610a95565b6040516102499594939291906117d0565b60405180910390f35b61025a610c63565b604051610267919061132e565b60405180910390f35b610278610c6d565b6040516102859190611838565b60405180910390f35b610296610c96565b6040516102a391906113e2565b60405180910390f35b6102b4610d2b565b6040516102c19190611853565b60405180910390f35b6102e460048036038101906102df919061186e565b610d42565b005b6102ee610e6b565b6040516102fb91906113e2565b60405180910390f35b61030c610f00565b6040516103199190611853565b60405180910390f35b61033c600480360381019061033791906112f2565b610f17565b6040516103499190611838565b60405180910390f35b61035a610f56565b60405161036791906113e2565b60405180910390f35b610378610feb565b6040516103859190611838565b60405180910390f35b6103a860048036038101906103a39190611915565b61100f565b005b60001515600b60003373ffffffffffffffffffffffffffffffffffffffff1673ffffffffffffffffffffffffffffffffffffffff16815260200190815260200160002060030160019054906101000a900460ff1615151461040a57600080fd5b60011515600b60003373ffffffffffffffffffffffffffffffffffffffff1673ffffffffffffffffffffffffffffffffffffffff16815260200190815260200160002060030160009054906101000a900460ff1615151461046a57600080fd5b60011515600360009054906101000a900460ff1615151461048a57600080fd5b60001515600360019054906101000a900460ff161515146104aa57600080fd5b60016004600083815260200190815260200160002060040160008282546104d191906119bc565b925050819055506001600b60003373ffffffffffffffffffffffffffffffffffffffff1673ffffffffffffffffffffffffffffffffffffffff16815260200190815260200160002060030160016101000a81548160ff02191690831515021790555050565b6000600254905090565b60606005600001805461055290611a41565b80601f016020809104026020016040519081016040528092919081815260200182805461057e90611a41565b80156105cb5780601f106105a0576101008083540402835291602001916105cb565b820191906000526020600020905b8154815290600101906020018083116105ae57829003601f168201915b5050505050905090565b60008054906101000a900473ffffffffffffffffffffffffffffffffffffffff1673ffffffffffffffffffffffffffffffffffffffff163373ffffffffffffffffffffffffffffffffffffffff161461062d57600080fd5b6040518060a001604052808681526020018581526020018481526020018381526020018281525060056000820151816000019080519060200190610672929190611205565b50602082015181600101908051906020019061068f929190611205565b5060408201518160020190805190602001906106ac929190611205565b5060608201518160030190805190602001906106c9929190611205565b5060808201518160040190805190602001906106e6929190611205565b509050506001600360006101000a81548160ff0219169083151502179055506000600360016101000a81548160ff0219169083151502179055505050505050565b60606005600401805461073990611a41565b80601f016020809104026020016040519081016040528092919081815260200182805461076590611a41565b80156107b25780601f10610787576101008083540402835291602001916107b2565b820191906000526020600020905b81548152906001019060200180831161079557829003601f168201915b5050505050905090565b60008054906101000a900473ffffffffffffffffffffffffffffffffffffffff1673ffffffffffffffffffffffffffffffffffffffff163373ffffffffffffffffffffffffffffffffffffffff161461081457600080fd5b81600b60008373ffffffffffffffffffffffffffffffffffffffff1673ffffffffffffffffffffffffffffffffffffffff16815260200190815260200160002060030160006101000a81548160ff0219169083151502179055505050565b600b6020528060005260406000206000915090508060000160009054906101000a900473ffffffffffffffffffffffffffffffffffffffff16908060010180546108bb90611a41565b80601f01602080910402602001604051908101604052809291908181526020018280546108e790611a41565b80156109345780601f1061090957610100808354040283529160200191610934565b820191906000526020600020905b81548152906001019060200180831161091757829003601f168201915b50505050509080600201805461094990611a41565b80601f016020809104026020016040519081016040528092919081815260200182805461097590611a41565b80156109c25780601f10610997576101008083540402835291602001916109c2565b820191906000526020600020905b8154815290600101906020018083116109a557829003601f168201915b5050505050908060030160009054906101000a900460ff16908060030160019054906101000a900460ff16908060030160029054906101000a900460ff16905086565b60008054906101000a900473ffffffffffffffffffffffffffffffffffffffff1673ffffffffffffffffffffffffffffffffffffffff163373ffffffffffffffffffffffffffffffffffffffff1614610a5d57600080fd5b6001600360016101000a81548160ff0219169083151502179055506000600360006101000a81548160ff021916908315150217905550565b6004602052806000526040600020600091509050806000015490806001018054610abe90611a41565b80601f0160208091040260200160405190810160405280929190818152602001828054610aea90611a41565b8015610b375780601f10610b0c57610100808354040283529160200191610b37565b820191906000526020600020905b815481529060010190602001808311610b1a57829003601f168201915b505050505090806002018054610b4c90611a41565b80601f0160208091040260200160405190810160405280929190818152602001828054610b7890611a41565b8015610bc55780601f10610b9a57610100808354040283529160200191610bc5565b820191906000526020600020905b815481529060010190602001808311610ba857829003601f168201915b505050505090806003018054610bda90611a41565b80601f0160208091040260200160405190810160405280929190818152602001828054610c0690611a41565b8015610c535780601f10610c2857610100808354040283529160200191610c53565b820191906000526020600020905b815481529060010190602001808311610c3657829003601f168201915b5050505050908060040154905085565b6000600154905090565b60008060009054906101000a900473ffffffffffffffffffffffffffffffffffffffff16905090565b606060056001018054610ca890611a41565b80601f0160208091040260200160405190810160405280929190818152602001828054610cd490611a41565b8015610d215780601f10610cf657610100808354040283529160200191610d21565b820191906000526020600020905b815481529060010190602001808311610d0457829003601f168201915b5050505050905090565b6000600360019054906101000a900460ff16905090565b60008054906101000a900473ffffffffffffffffffffffffffffffffffffffff1673ffffffffffffffffffffffffffffffffffffffff163373ffffffffffffffffffffffffffffffffffffffff1614610d9a57600080fd5b60006040518060a0016040528060015481526020018381526020018581526020018481526020016000815250905080600460006001548152602001908152602001600020600082015181600001556020820151816001019080519060200190610e04929190611205565b506040820151816002019080519060200190610e21929190611205565b506060820151816003019080519060200190610e3e929190611205565b50608082015181600401559050506001806000828254610e5e91906119bc565b9250508190555050505050565b606060056002018054610e7d90611a41565b80601f0160208091040260200160405190810160405280929190818152602001828054610ea990611a41565b8015610ef65780601f10610ecb57610100808354040283529160200191610ef6565b820191906000526020600020905b815481529060010190602001808311610ed957829003601f168201915b5050505050905090565b6000600360009054906101000a900460ff16905090565b600a8181548110610f2757600080fd5b906000526020600020016000915054906101000a900473ffffffffffffffffffffffffffffffffffffffff1681565b606060056003018054610f6890611a41565b80601f0160208091040260200160405190810160405280929190818152602001828054610f9490611a41565b8015610fe15780601f10610fb657610100808354040283529160200191610fe1565b820191906000526020600020905b815481529060010190602001808311610fc457829003601f168201915b5050505050905090565b60008054906101000a900473ffffffffffffffffffffffffffffffffffffffff1681565b60006040518060c001604052803373ffffffffffffffffffffffffffffffffffffffff16815260200184815260200183815260200160001515815260200160001515815260200160011515815250905080600b60003373ffffffffffffffffffffffffffffffffffffffff1673ffffffffffffffffffffffffffffffffffffffff16815260200190815260200160002060008201518160000160006101000a81548173ffffffffffffffffffffffffffffffffffffffff021916908373ffffffffffffffffffffffffffffffffffffffff1602179055506020820151816001019080519060200190611102929190611205565b50604082015181600201908051906020019061111f929190611205565b5060608201518160030160006101000a81548160ff02191690831515021790555060808201518160030160016101000a81548160ff02191690831515021790555060a08201518160030160026101000a81548160ff021916908315150217905550905050600a339080600181540180825580915050600190039060005260206000200160009091909190916101000a81548173ffffffffffffffffffffffffffffffffffffffff021916908373ffffffffffffffffffffffffffffffffffffffff1602179055506001600260008282546111f991906119bc565b92505081905550505050565b82805461121190611a41565b90600052602060002090601f016020900481019282611233576000855561127a565b82601f1061124c57805160ff191683800117855561127a565b8280016001018555821561127a579182015b8281111561127957825182559160200191906001019061125e565b5b509050611287919061128b565b5090565b5b808211156112a457600081600090555060010161128c565b5090565b6000604051905090565b600080fd5b600080fd5b6000819050919050565b6112cf816112bc565b81146112da57600080fd5b50565b6000813590506112ec816112c6565b92915050565b600060208284031215611308576113076112b2565b5b6000611316848285016112dd565b91505092915050565b611328816112bc565b82525050565b6000602082019050611343600083018461131f565b92915050565b600081519050919050565b600082825260208201905092915050565b60005b83811015611383578082015181840152602081019050611368565b83811115611392576000848401525b50505050565b6000601f19601f8301169050919050565b60006113b482611349565b6113be8185611354565b93506113ce818560208601611365565b6113d781611398565b840191505092915050565b600060208201905081810360008301526113fc81846113a9565b905092915050565b600080fd5b600080fd5b7f4e487b7100000000000000000000000000000000000000000000000000000000600052604160045260246000fd5b61144682611398565b810181811067ffffffffffffffff821117156114655761146461140e565b5b80604052505050565b60006114786112a8565b9050611484828261143d565b919050565b600067ffffffffffffffff8211156114a4576114a361140e565b5b6114ad82611398565b9050602081019050919050565b82818337600083830152505050565b60006114dc6114d784611489565b61146e565b9050828152602081018484840111156114f8576114f7611409565b5b6115038482856114ba565b509392505050565b600082601f8301126115205761151f611404565b5b81356115308482602086016114c9565b91505092915050565b600080600080600060a08688031215611555576115546112b2565b5b600086013567ffffffffffffffff811115611573576115726112b7565b5b61157f8882890161150b565b955050602086013567ffffffffffffffff8111156115a05761159f6112b7565b5b6115ac8882890161150b565b945050604086013567ffffffffffffffff8111156115cd576115cc6112b7565b5b6115d98882890161150b565b935050606086013567ffffffffffffffff8111156115fa576115f96112b7565b5b6116068882890161150b565b925050608086013567ffffffffffffffff811115611627576116266112b7565b5b6116338882890161150b565b9150509295509295909350565b60008115159050919050565b61165581611640565b811461166057600080fd5b50565b6000813590506116728161164c565b92915050565b600073ffffffffffffffffffffffffffffffffffffffff82169050919050565b60006116a382611678565b9050919050565b6116b381611698565b81146116be57600080fd5b50565b6000813590506116d0816116aa565b92915050565b600080604083850312156116ed576116ec6112b2565b5b60006116fb85828601611663565b925050602061170c858286016116c1565b9150509250929050565b60006020828403121561172c5761172b6112b2565b5b600061173a848285016116c1565b91505092915050565b61174c81611698565b82525050565b61175b81611640565b82525050565b600060c0820190506117766000830189611743565b818103602083015261178881886113a9565b9050818103604083015261179c81876113a9565b90506117ab6060830186611752565b6117b86080830185611752565b6117c560a0830184611752565b979650505050505050565b600060a0820190506117e5600083018861131f565b81810360208301526117f781876113a9565b9050818103604083015261180b81866113a9565b9050818103606083015261181f81856113a9565b905061182e608083018461131f565b9695505050505050565b600060208201905061184d6000830184611743565b92915050565b60006020820190506118686000830184611752565b92915050565b600080600060608486031215611887576118866112b2565b5b600084013567ffffffffffffffff8111156118a5576118a46112b7565b5b6118b18682870161150b565b935050602084013567ffffffffffffffff8111156118d2576118d16112b7565b5b6118de8682870161150b565b925050604084013567ffffffffffffffff8111156118ff576118fe6112b7565b5b61190b8682870161150b565b9150509250925092565b6000806040838503121561192c5761192b6112b2565b5b600083013567ffffffffffffffff81111561194a576119496112b7565b5b6119568582860161150b565b925050602083013567ffffffffffffffff811115611977576119766112b7565b5b6119838582860161150b565b9150509250929050565b7f4e487b7100000000000000000000000000000000000000000000000000000000600052601160045260246000fd5b60006119c7826112bc565b91506119d2836112bc565b9250827fffffffffffffffffffffffffffffffffffffffffffffffffffffffffffffffff03821115611a0757611a0661198d565b5b828201905092915050565b7f4e487b7100000000000000000000000000000000000000000000000000000000600052602260045260246000fd5b60006002820490506001821680611a5957607f821691505b60208210811415611a6d57611a6c611a12565b5b5091905056fea264697066735822122062a5a5ee3c86f9551d39ef276120dc52e1490461bf9a155e0178cbac0356453664736f6c634300080a0033",
  "immutableReferences": {},
  "source": "// SPDX-License-Identifier: MIT\r\npragma solidity >=0.4.21 <0.9.0;\r\n\r\ncontract Election {\r\n    address public admin;\r\n    uint256 candidateCount;\r\n    uint256 voterCount;\r\n    bool start;\r\n    bool end;\r\n\r\n    constructor() {\r\n        // Initilizing default values\r\n        admin = msg.sender;\r\n        candidateCount = 0;\r\n        voterCount = 0;\r\n        start = false;\r\n        end = false;\r\n    }\r\n\r\n    function getAdmin() public view returns (address) {\r\n        // Returns account address used to deploy contract (i.e. admin)\r\n        return admin;\r\n    }\r\n\r\n    modifier onlyAdmin() {\r\n        // Modifier for only admin access\r\n        require(msg.sender == admin);\r\n        _;\r\n    }\r\n    // Modeling a candidate\r\n    struct Candidate {\r\n        uint256 candidateId;\r\n        string image;\r\n        string header;\r\n        string slogan;\r\n        uint256 voteCount;\r\n    }\r\n    mapping(uint256 => Candidate) public candidateDetails;\r\n\r\n    // Adding new candidates\r\n    function addCandidate(string memory _header, string memory _slogan, string memory _imageurl)\r\n        public\r\n        // Only admin can add\r\n        onlyAdmin\r\n    {\r\n        Candidate memory newCandidate =\r\n            Candidate({\r\n                candidateId: candidateCount,\r\n                image:_imageurl,\r\n                header: _header,\r\n                slogan: _slogan,\r\n                voteCount: 0\r\n            });\r\n        candidateDetails[candidateCount] = newCandidate;\r\n        candidateCount += 1;\r\n    }\r\n\r\n    // Modeling a Election Details\r\n    struct ElectionDetails {\r\n        string adminName;\r\n        string adminEmail;\r\n        string adminTitle;\r\n        string electionTitle;\r\n        string organizationTitle;\r\n    }\r\n    ElectionDetails electionDetails;\r\n\r\n    function setElectionDetails(\r\n        string memory _adminName,\r\n        string memory _adminEmail,\r\n        string memory _adminTitle,\r\n        string memory _electionTitle,\r\n        string memory _organizationTitle\r\n    )\r\n        public\r\n        // Only admin can add\r\n        onlyAdmin\r\n    {\r\n        electionDetails = ElectionDetails(\r\n            _adminName,\r\n            _adminEmail,\r\n            _adminTitle,\r\n            _electionTitle,\r\n            _organizationTitle\r\n        );\r\n        start = true;\r\n        end = false;\r\n    }\r\n\r\n    // Get Elections details\r\n    function getAdminName() public view returns (string memory) {\r\n        return electionDetails.adminName;\r\n    }\r\n\r\n    function getAdminEmail() public view returns (string memory) {\r\n        return electionDetails.adminEmail;\r\n    }\r\n\r\n    function getAdminTitle() public view returns (string memory) {\r\n        return electionDetails.adminTitle;\r\n    }\r\n\r\n    function getElectionTitle() public view returns (string memory) {\r\n        return electionDetails.electionTitle;\r\n    }\r\n\r\n    function getOrganizationTitle() public view returns (string memory) {\r\n        return electionDetails.organizationTitle;\r\n    }\r\n\r\n    // Get candidates count\r\n    function getTotalCandidate() public view returns (uint256) {\r\n        // Returns total number of candidates\r\n        return candidateCount;\r\n    }\r\n\r\n    // Get voters count\r\n    function getTotalVoter() public view returns (uint256) {\r\n        // Returns total number of voters\r\n        return voterCount;\r\n    }\r\n\r\n    // Modeling a voter\r\n    struct Voter {\r\n        address voterAddress;\r\n        string name;\r\n        string phone;\r\n        bool isVerified;\r\n        bool hasVoted;\r\n        bool isRegistered;\r\n    }\r\n    address[] public voters; // Array of address to store address of voters\r\n    mapping(address => Voter) public voterDetails;\r\n\r\n    // Request to be added as voter\r\n    function registerAsVoter(string memory _name, string memory _phone) public {\r\n        Voter memory newVoter =\r\n            Voter({\r\n                voterAddress: msg.sender,\r\n                name: _name,\r\n                phone: _phone,\r\n                hasVoted: false,\r\n                isVerified: false,\r\n                isRegistered: true\r\n            });\r\n        voterDetails[msg.sender] = newVoter;\r\n        voters.push(msg.sender);\r\n        voterCount += 1;\r\n    }\r\n\r\n    // Verify voter\r\n    function verifyVoter(bool _verifedStatus, address voterAddress)\r\n        public\r\n        // Only admin can verify\r\n        onlyAdmin\r\n    {\r\n        voterDetails[voterAddress].isVerified = _verifedStatus;\r\n    }\r\n\r\n    // Vote\r\n    function vote(uint256 candidateId) public {\r\n        require(voterDetails[msg.sender].hasVoted == false);\r\n        require(voterDetails[msg.sender].isVerified == true);\r\n        require(start == true);\r\n        require(end == false);\r\n        candidateDetails[candidateId].voteCount += 1;\r\n        voterDetails[msg.sender].hasVoted = true;\r\n    }\r\n\r\n    // End election\r\n    function endElection() public onlyAdmin {\r\n        end = true;\r\n        start = false;\r\n    }\r\n\r\n    // Get election start and end values\r\n    function getStart() public view returns (bool) {\r\n        return start;\r\n    }\r\n\r\n    function getEnd() public view returns (bool) {\r\n        return end;\r\n    }\r\n}",
  "sourcePath": "C:\\Users\\payal\\Documents\\reactapp\\contracts\\Election.sol",
  "compiler": {
    "name": "solc",
    "version": "0.8.10+commit.fc410830.Emscripten.clang"
  },
  "schemaVersion": "3.4.4",
  "updatedAt": "2022-01-30T19:33:14.277Z",
  "networkType": "ethereum",
  "devdoc": {
    "kind": "dev",
    "methods": {},
    "version": 1
  },
  "userdoc": {
    "kind": "user",
    "methods": {},
    "version": 1
  }
}